:100000000C94A4010C94DC010C94DC010C94DC0134
:100010000C94DC010C94DC010C94DC010C94DC01EC
:100020000C94DC010C94DC010C94DE1B0C94B21CCF
:100030000C94EB160C94DC010C94DC010C94DC01A8
:100040000C94DC010C94DC010C94DC010C94DC01BC
:100050000C94DC010C9472170C94DC010C94DC0100
:100060000C94DC010C94DC010C94DC010C94DC019C
:100070000C94DC010C94DC010C94DC010C94DC018C
:100080000C94DC010C94DC010C94DC010C94DC017C
:100090000C94DC010C94DC010C94DC010C94DC016C
:1000A0000C94DC010C94DC010C94DC0129001E0092
:1000B0001F0020002100220023002400250026002C
:1000C00027002D002E002A004C002B0014001A00DF
:1000D0000800150017001C0018000C001200130087
:1000E0002F00300031004A003900040016000700DC
:1000F00009000A000B000D000E000F003300340051
:10010000000028000000E1001D001B00060019008F
:100110000500110010003600370038000000E5002F
:1001200052000000E000E300E200000000002C00AC
:10013000000000000000E6000000215250005100C5
:100140004F0035003A003B003C003D003E003F00C0
:100150004000410042004300440045004C000000C4
:100160000000000000000000000000004900000046
:1001700000000000000046004700480000000000AA
:10018000000000000000000000000000000000006F
:10019000000000000000000000000000000000005F
:1001A000000000000000000000000000000000004F
:1001B000000000000000A900000000000000000096
:1001C000000000000000000000000000000000002F
:1001D0000000A800AA0000000C036C0066006E007E
:1001E00036003500000018036C0066006E00200029
:1001F000640065007300690067006E007300000012
:100200000403090409023B00020100A0FA090400EA
:100210000001030101000921110100012240000732
:100220000581030800010904010001030000000921
:10023000211101000122B6000705820320000112EE
:1002400001000200000008EDFE01000100010200B3
:100250000105010902A10185020901A10005091991
:10026000012908150025019508750181020501097C
:100270003009311581257F950275088106093815E9
:1002800081257F950175088106050C0A38021581C4
:10029000257F950175088106C0C005010980A1016F
:1002A000850319012AB700150126B70095017510BD
:1002B0008100C0050C0901A101850419012AA002D1
:1002C000150126A002950175108100C005010906DF
:1002D000A1018506050719E029E715002501950804
:1002E000750181020507190029EF1500250195F018
:1002F000750181020508190129059505750191020D
:10030000950175039101C005010906A101050719B1
:10031000E029E71500250195087501810295017511
:100320000881010507190029FF150026FF00950621
:1003300075088100050819012905950575019102C7
:10034000950175039101C00011241FBECFEFDAE0C3
:10035000DEBFCDBF04B603FE18C08091C4029091E9
:10036000C502A091C602B091C7028730904BA7404A
:10037000B04B59F41092C4021092C5021092C602FA
:100380001092C702E0E0F8E3099511E0A0E0B1E0C7
:10039000EEEAFEE302C005900D92AA39B107D9F743
:1003A00022E0AAE9B1E001C01D92A43CB207E1F746
:1003B0000E9411110C94161F0C9400008230B8F4A6
:1003C0006530A8F44F3098F450E09FE0699F400DED
:1003D000511D1124FA019BE4899FE00DF11D1124A8
:1003E000EE0FFF1FE455FF4F85919491089581E032
:1003F00090E008950E94DE01089581E0089581E073
:1004000008950E94FF01089508950E94040208952E
:10041000A5E0B0E0EEE0F2E00C94821E49835A833E
:100420003091A10189819A81311119C0662399F017
:10043000222389F00E94A907182F682F89819A81A9
:100440000E94850769817A81812F0E947E0E259600
:10045000E3E00C949E1E0E949707182FF3CF0E9492
:10046000A90769817A81F1CFFC01262F4081518152
:100470006281738184810E940802089581E0089559
:10048000CF93DF93EC0160E00E943402BE010E9432
:100490000502DF91CF91089508950E9454060E94AD
:1004A0004C022FEF84E39CE0215080409040E1F724
:1004B00000C0000008950E944D020E949617089502
:1004C0000E944D020E94BA1708950F931F93CF9375
:1004D000DF938C0161E00E943402EC01B8010E94BC
:1004E0000102811106C080E0DF91CF911F910F9131
:1004F0000895B801CE010E940C158823A1F3B8011C
:10050000CE010E94A213882371F3B801CE010E948C
:100510007E14882341F3F8018281882361F0C3307F
:10052000FCE7DF07E9F058F4C115ECE7DE07A9F0B6
:10053000C130DC47B9F0C8010E94FD01D5CFCB35F1
:100540008CE7D807A9F0CC35ECE7DE0771F0CA35A7
:10055000DC4789F70E94DA0BEECF0E945B02C3CF23
:100560000E94E20B0E946002BECF0E94D00BE3CF3C
:100570000E94DE0BE0CF0E94C7160E94E20208959F
:100580000E94E6020E94CC160895089581E0089525
:100590000895CF93DF93D82F0E94C602C82F8823D7
:1005A00019F08D2F0E94C8028C2FDF91CF910895F2
:1005B0000895CF93C82F0E94C5028C2F0E94C902B4
:1005C000CF91089580E00E94D90208950E945A15A3
:1005D0000E94D9020895CF930E945A15C82F809186
:1005E0009C018C1779F0C0939C010E94571760936F
:1005F0009D0170939E0180939F019093A0018C2F89
:100600000E94D902CF910895ABE0B0E0EAE0F3E0B8
:100610000C94831E4F83588769877A878B87611173
:100620000E941B0B1E821D8285E0FE013796DE01B3
:10063000119601900D928A95E1F78C819D81892B0D
:1006400061F449815A816B817C818D819E810E94F8
:10065000430A2B96E2E00C949F1E89819A8189239C
:100660008F3F79F3CE0101960E943E028111E9CFBE
:10067000F0CFFC01808191810E94DB070895662301
:1006800029F00E9495110E94681208950E94EF11AE
:10069000FACFCF93C82F8823B9F08CEF8C0F813A13
:1006A000A8F46C2F80910001909101010E94ED153A
:1006B000882329F08C2F0E94DB0A0E943C0B8C2F90
:1006C0000E94D30A0E943C0BCF91089580E28C0FC8
:1006D000883048F4C77081E001C0880FCA95EAF7F6
:1006E0000E94FE0AEFCFEBE5EC0FE33040F4F0E0C0
:1006F000E75BFE4F808190E00E948F15E5CFE8E533
:10070000EC0FEB3150F4F0E0EE0FFF1FED5EFE4F0B
:10071000808191810E94B415D7CF83E38C0F833100
:1007200098F661E08C2F0E943F03CECF882381F1A1
:100730009CEF980F913A28F40E94DB0A0E943C0B30
:10074000089590E2980F983050F4877091E001C0BE
:10075000990F8A95EAF7892F0E94040BEFCF9BE54A
:10076000980F933028F490E080E00E948F15089550
:1007700098E5980F9B3128F490E080E00E94B41532
:10078000089593E3980F933118F460E00E943F03BB
:1007900008951F93CF93DF93182FEB010E94490315
:1007A000209739F4812F0E949603DF91CF911F91FA
:1007B00008958FE99FE00197F1F700C000002197AD
:1007C000EFCF70E060E0893311F460E570E00E94E3
:1007D000C9030895882321F00E94FE0A0E943C0B61
:1007E0000895882321F00E94040B0E943C0B089579
:1007F000B0E0A0E0EEEFF3E00C947C1E6C01D62F8D
:10080000C72FFC011281058102950F700E94F40A26
:10081000E82E8823E9F0E12E1123D1F08C2F807F80
:10082000803451F080E28D0F8830F8F0011104C05F
:100830008C2F807E8032C9F080919E0282FF15C08D
:1008400082E00E949F0B0E94F40A91E0E82EE926C4
:10085000BC2EB2949FE0B922FBE0FB15B8F1EB2D62
:10086000F0E0E85EF04E0C946D1EE12CF1CF0C2F01
:100870000F70C07F11F00295007F112399F00023C3
:1008800059F080E28D0F883010F0D11107C0802F11
:100890000E94FE0A0E943C0B8D2F63C0802F0E9495
:1008A0000E0BF8CF8D2F0E949603002379F080E283
:1008B0008D0F883010F0D11104C0802F0E94040BDE
:1008C00003C0802F0E94140B0E943C0B2B2D28503C
:1008D000330B2430310520F40E945A150E94D902AE
:1008E000EE2089F00E94F00A80FD0DC0F601128210
:1008F0000E94EA0A0E94E306C6010E9414060E94B2
:10090000EA0A0E94F306CDB7DEB7E9E00C94981E20
:100910002C2F2F70F22EC07FC03219F0F29480EF8E
:10092000F822DD2381F0D13009F449C0112309F404
:1009300051C0002309F448C0F601858180FFACCF87
:100940008F70858341C080919E0282FD15C0112366
:1009500059F0FF2029F08F2D0E94FE0A0E943C0BC7
:1009600080E00E944903B2CF80E00E949603FF20FE
:1009700009F4ACCF8F2DA2CF112381F0011106C055
:100980000E941E0B8F290E94EA03A0CF0130C1F7FD
:100990000E941E0B8F290E94250B98CF011106C0C3
:1009A0000E94320B8F2D0E94F10390CF013009F489
:1009B0008DCF8F2D0E94F1030E94320B87CF112320
:1009C00029F0063008F082CF8F2DDDCF053008F0FA
:1009D0007DCFE8CF002331F3D93349F4FFEF27EE81
:1009E00033E0F15020403040E1F700C000008D2F8F
:1009F0000E9496036BCF8C2F86958695837069F045
:100A0000813009F063CF8D2F9C2F9370111102C09C
:100A100080E090E00E94B41559CF8D2F9C2F9370E9
:100A2000111102C080E090E00E948F154FCF612F1E
:100A30008D2F0E943F034ACF8C2F8370A1F5111197
:100A400045CF4D2F429546954770440F440F2D2FAB
:100A50002F7030E0042E02C0220F331F0A94E2F7F9
:100A600090E080E0D4FF09C08FE090E002C0880FE2
:100A7000991F4A95E2F780959095C695C695C370E3
:100A8000822B932BC23049F058F4C13019F00E94E8
:100A9000B3061CCF0E94AA0619CF0E94BC0616CF2F
:100AA0000E94A70613CF8695112311F08C2F817019
:100AB000882309F40BCF4D2F429546954770440F7C
:100AC000440F2D2F2F7030E0042E02C0220F331F51
:100AD0000A94E2F790E080E0D4FF09C08FE090E054
:100AE00002C0880F991F4A95E2F780959095C695A8
:100AF000C695C370822B932BC23049F058F4C13095
:100B000019F00E941E07E2CE0E941507DFCE0E9458
:100B10002707DCCE0E94CB06D9CECF70112329F057
:100B20008C2F0E94E3068D2F2ECF8D2F0E94F10374
:100B30008C2F0E94F306CACED23F41F160F4D03F21
:100B4000B9F0D13F81F0112309F446C00111A4CEC0
:100B50008C2F8F711FC0D33F01F1D43FA1F780913B
:100B60009E0282FD24C08C2F8F71112311F312C0BD
:100B7000112341F0053008F0A9CE8C2F8F710E940F
:100B80000507A4CE063008F0A1CEF7CF8C2F8F71C9
:100B90001111CFCF0E94E30699CE112329F08C2F9B
:100BA0008F710E94D70692CE0E94D2068FCE11235B
:100BB00049F0CF718C2F0E94E30663E08C2F0E94D6
:100BC000810B84CE81E00E949F0B023008F47ECE20
:100BD00082E00E949F0B7ACE002359F0D93309F0AE
:100BE00006CF8FEF97EEE3E081509040E040E1F7D1
:100BF000FCCE8C2F8F719DCF0F931F93CF93DF93DC
:100C0000EC01688179818A810E94E6078C010E944B
:100C100030070E94A606B801CE010E94F803DF91BA
:100C2000CF911F910F910895CF93DF93EC018B81AA
:100C30009C81892B29F08881998189238F3F51F4E8
:100C4000DF91CF910895CE010E94FC05CE010E9454
:100C50004002F6CFCE010E9465028111F4CF0E94BE
:100C6000F40A882369F38A81882351F380919E02D4
:100C700082FFE6CF82E00E949F0BE2CF90E080E00F
:100C80000E948F1590E080E00E94B4150E941B0B1B
:100C90000E943C0B0E9484120E94681208950E94D8
:100CA000E30A0E943E0608950E940B0B0E944F0625
:100CB000089592959F70963091F058F4925F9F70CE
:100CC000923058F4803F19F030F4883E30F481E0DF
:100CD00008959A5FF4CF843FD1F380E00895883E71
:100CE000B0F3813FD1F7F3CFFC0183819481892B4D
:100CF00029F08081918189238F3F11F480E008954C
:100D0000808191810E94DB070E9459060895A5E029
:100D1000B0E0EDE8F6E00C94831E2596E2E00C943A
:100D20009F1EA6E0B0E0E7E9F6E00C94831E26964D
:100D3000E2E00C949F1E08950E949B0608950E9475
:100D40009C069093CD018093CC01089508950E9454
:100D50009F0608952091CC013091CD01822B932BD9
:100D60000E949F0608952091CC013091CD018223ED
:100D700093230E949F0608952091CC013091CD01CC
:100D8000822793270E949F0608950E949B0608953C
:100D90000E94C50608950E94C8069093CB018093D7
:100DA000CA01089590E080E00E94CB06089521E0FA
:100DB00030E0A90102C0440F551F8A95E2F7CA012D
:100DC0000E94CB06089521E030E002C0220F331FBD
:100DD0008A95E2F78091CA019091CB01822B932BE7
:100DE0000E94CB06089521E030E002C0220F331F9D
:100DF0008A95E2F7209530958091CA019091CB01B8
:100E0000822393230E94CB06089521E030E002C0A4
:100E1000220F331F8A95E2F78091CA019091CB018E
:100E2000822793270E94CB0608952091CA01309112
:100E3000CB01822B932B0E94CB0608952091CA01EF
:100E40003091CB01822393230E94CB0608952091F9
:100E5000CA013091CB01822793270E94CB060895C7
:100E60000895262F277091E001C0990F2A95EAF77F
:100E700023E0769567952A95E1F7660F771F660F51
:100E8000771FFA01E60FF71F50E040E0682F70E08F
:100E90008191DF0111979B01042E02C036952795A1
:100EA0000A94E2F7217021952827292328272C93DB
:100EB0004F5F5F4F4430510559F70895A82FA77031
:100EC00023E0969587952A95E1F7880F991F880F5B
:100ED000991FFB01E80FF91F50E040E080E02191ED
:100EE00030E00A2E02C0369527950A94E2F7217069
:100EF0003327042E01C0220F0A94EAF7822B4F5F9A
:100F00005F4F4430510559F70895262F953070F4FE
:100F10008F3060F4682F70E08FE0989F600D711D36
:100F2000112442EA51E0822F0E9431070895292FAF
:100F3000953068F48F3058F490E062EA71E03FE059
:100F4000239F800D911D11240E945E07089580E06B
:100F50000895B0E0A0E0EFEAF7E00C947C1E7C017D
:100F60000091CA011091CB018091CC019091CD01EB
:100F7000082B192BCFE0D0E0CC24C394D12CBC2E6D
:100F8000C6010C2E02C0880F991F0A94E2F7802335
:100F90009123892B49F4219790F7B12C8B2DCDB754
:100FA000DEB7E9E00C94981EB7018C2F0E948A0EE0
:100FB000019789F3F3CFCF93DF93EC010E94A90748
:100FC000BE010E948A0EDF91CF9108951F93CF93A7
:100FD000DF93EB019091A101992339F0CB010E949D
:100FE000DB07DF91CF911F910895882369F0CB0132
:100FF0000E94A907182F682FCE010E948507BE0105
:10100000812F0E948A0EEDCFCB010E949707182FE7
:10101000F6CF1F93CF93DF93C091CE0116E080915E
:10102000CF018C1304C0DF91CF911F910895D0E0C0
:101030001C9FF0011D9FF00D1124E053FE4F4081D5
:10104000518162817381848195810E9491062196EC
:10105000C770E5CF409100025091010260910202F9
:101060007091030280910402909105020E94910602
:1010700008952091CE019091CF0156E0291302C02E
:1010800080E0089530E0529FF001539FF00D11244D
:10109000E053FE4F7181761306C07081781303C050
:1010A0007281741304C02F5F3F4F2770E7CF81E038
:1010B00008951F93CF93DF9380910502807F09F0FD
:1010C0004BC080910202882309F446C08091CE0172
:1010D000C091CF0140910002509101026091030242
:1010E00070910402D42FD52316E0C817A9F190E01F
:1010F00061157105A9F1DF3F99F1189FF001199F62
:10110000F00D1124DF01A053BE4F11962C911197C1
:10111000251326C02C91241323C012962C911297CC
:1011200021111EC013962D913C91261B370B283C94
:101130003105B0F4809105028F70806180930502C3
:10114000EB52FE4F80818F708061808380E092E05F
:101150000E9414060E940908DF91CF911F91089503
:1011600001968770C2CFA1E1B0E0E9EBF8E00C9402
:10117000791E8C0185E0F801DE011D9601900D922B
:101180008A95E1F7F801F28080E0A82E82E0B82E7F
:1011900040910302509104024115510509F45AC1CE
:1011A0009091000220910102892F82238F3F09F440
:1011B00051C1C080D18083809480E0900202B4014C
:1011C000641B750BEE2009F4F6C080910502382FE0
:1011D000307F683C710508F0AFC031117AC0EF2C48
:1011E0002D1116C09C1114C0F11012C08F708061B7
:1011F000809305020E942A08C5010E94140680916E
:101200000502F80185838E2D6196ECE00C94951E05
:1012100081149104C9F18C2D8D218F3FA9F181E0BA
:101220008F2580FF05C04F2D6D2D8C2D0E94390814
:101230008114910459F18C2D8D218F3F39F181E07A
:101240008F25F82FF170BF2E80FF39C04F2D6D2DE7
:101250008C2D0E943908A82E811131C0CD86DE86E2
:101260008D859E850E94DB07292F22952F702430C3
:1012700078F49F702230A8F09923B9F0F801958195
:10128000907F99F4EA2CBFCF80E0CBCF80E0D9CF1C
:101290002A5F2F70223068F0C8010E941406AB2C20
:1012A000F1CF992311F0882369F3805E883050F3E1
:1012B000F3CF803F38F3815F833070F7E3CFFF20B7
:1012C00009F4A1CF80910502816080930502E12C91
:1012D0009ACF2D1105C09C1103C0FF2009F486C0D0
:1012E000C8010E947406882319F1FF2009F180913A
:1012F0000502803270F0209100023091010238879F
:101300002F8319869B868A868C87CE0107960E943A
:10131000140686E0F801A0E0B2E001900D928A95F3
:10132000E1F70E9459080E942A08EE24E3946BCF4B
:10133000C8010E941406F9CF311114C0782D998A82
:10134000888AA6016F2D89890E94870680E092E035
:101350000E94140686E0F50111928A95E9F70E9431
:101360002A08B5CF2D110EC09C110CC0F1100AC077
:101370008583C8010E94140686E0F50111928A95C2
:10138000E9F741CFC8010E947406882389F2FF2043
:1013900079F280910502803208F4BBCF20910002DF
:1013A000309101023A8329831B829D828C828E8335
:1013B000CE010196ACCF683C710508F03DC0EF2C22
:1013C000FF2009F4B5CF2D1129C09C1127C08091B1
:1013D000050280FD1AC0982F907FB9F08583903F59
:1013E00031F0982F907F905F8F70892B8583C80193
:1013F0000E94140686E0F801A0E0B2E001900D9290
:101400008A95E1F70E942A08FECE86E0F801A0E066
:10141000B2E001900D928A95E1F7F5CEC8010E94E5
:101420007406811176CF8091050281608093050258
:10143000C8010E941406E7CE782D998A888AA601F1
:101440006F2D89890E94870686E0F50111928A95A1
:10145000E9F7D8CFFF2009F46BCFC8010E947406CA
:10146000E82E882309F464CF86E0F801A0E0B2E01A
:1014700001900D928A95E1F780E092E00E94390395
:101480000E945908BFCFACE0B0E0E9E4FAE00C9468
:10149000821E4F83588769877A878B879C87CE0106
:1014A00007960E94B3088823B1F08A859B85892B13
:1014B00039F04F815885842F85238F3F09F06CC008
:1014C00016E08091CE019091CF01891343C02C96F4
:1014D000E3E00C949E1E86E0FE013796DE01119635
:1014E00001900D928A95E1F78A859B85892B41F3BE
:1014F0008F81988589238F3F19F32091CF0130E0A8
:10150000C9010196877099274091CE0148171906A5
:1015100071F40E9454061092CF011092CE0186E021
:10152000E0E0F2E0DF011D928A95E9F7C9CF96E08D
:10153000929FD001939FB00D1124A053BE4FFE0186
:10154000319601900D929A95E1F78093CF010E9418
:101550000908B6CF819FC001112480539E4F0E947D
:10156000B308882309F4B3CFE091CE011E9FF001A8
:101570001124E053FE4F4081518162817381848147
:1015800095810E9491068091CE0190E0019687702E
:1015900099278093CE0195CF69857A858B859C8527
:1015A0000E9491068DCF682F8091000190910101DA
:1015B0000E946D160895682F80910001909101019D
:1015C0000E947B16089580910001909101010E9474
:1015D00089160895809126028595859585950895AB
:1015E000809126028770089590912602977081E07D
:1015F00009F480E00895809149020895909149028C
:10160000892B8093490208958095909149029823EF
:1016100090934902089510924902089590914802CA
:10162000892B8093480208958095909148029823D1
:1016300090934802089510924802089580912702DD
:10164000089508950E94210B089590919E0292FFA3
:1016500008C090912702981721F0809327020E94DA
:10166000220B089580912702882329F010922702E7
:1016700080E00E94220B0895CF93DF93E091000158
:10168000F0910101809149028083E0910001F09185
:101690000101808190914802892B808390912702DB
:1016A000992381F0E0910001F09101018081892B63
:1016B000808380910001909101010E94D9158111D0
:1016C0000E94320BC0910001D091010140E250E034
:1016D00066E072E0CE010E94BE1E892B59F080E2C6
:1016E000FE01A6E0B2E001900D928A95E1F7CE01ED
:1016F0000E946715DF91CF91089508950E947D0B98
:10170000089590919E0292FF11C098E0899F9001E8
:101710001124622B609326020E94E3068091260228
:101720008595859585950E947E0B08950E94E30618
:1017300008951092260280E00E947E0B08959091F9
:1017400026028095892380932602282F277091F402
:10175000282F082E000C330B9217130659F0909186
:101760009E0292FF07C08595859585950E94F30698
:101770000E94990B089590919E0292FB222720F9D6
:10178000281769F080FB92F990939E0280919D0248
:1017900090919E020E94030C82E00E949F0B08958C
:1017A00080919E0282FB882780F991E089270E9420
:1017B000BB0B089581E00E94BB0B089580E00E945E
:1017C000BB0B08956FEF7FEF90E080E00E94001F59
:1017D000089590E080E00E94DC1E21E0873E9E4F4D
:1017E00009F020E0822F089582E090E00E94D41E4C
:1017F000089583E090E00E94D41E089584E090E074
:101800000E94DC1E0895BC0184E090E00E94001F4D
:101810000895AB01BC018FE090E00E94F41E089592
:10182000AB01BC0183E190E00E94F41E089560E0EA
:1018300070E0CB010E94100C089560E070E0CB01D5
:101840000E94090C0E94170C089567EE7EEF90E04D
:1018500080E00E94001F60E082E090E00E94E21EB3
:1018600060E083E090E00E94E21E1092CD011092B1
:10187000CC0160E074E184E090E00E94001F60E031
:1018800086E090E00E94E21E6FEF87E090E00E9409
:10189000E21E40E050E0BA0188E090E00E94F41EB1
:1018A00060E08DE090E00E94E21E40E050E0BA016E
:1018B00088E190E00E94F41E60E087E190E00E94E1
:1018C000E21E40E050E0BA018CE190E00E94F41E7C
:1018D00070E060E080E290E00E94001F40E050E095
:1018E000BA0188E190E00E94F41E0E941D0C089548
:1018F0000E94250C0895682F8EE090E00E94E21E61
:101900000895A5E0B0E0E7E8FCE00C94811E0E9499
:101910004B178C0180914A0290914B0280179107DE
:10192000A1F08FEF89838A831B820E944B1781600D
:10193000782F9D838C8349815A816B818D810E9490
:10194000040310934B0200934A022596E4E00C94A2
:101950009D1E0E94571760935A0270935B028093FA
:101960005C0290935D0260935602709357028093DD
:101970005802909359020895089508950E94BD0C4D
:10198000089508950E94C10C089581E0089584E7A8
:101990009FE00E9450150E94BC0C0E94BE0C08954E
:1019A0000E94C50C08950E94D00C089508950895D2
:1019B0000E94D60C0E94D70C08950E94930F0E949B
:1019C000D80208950E9442170E9472100E94DD0CF6
:1019D0000E94C20C0895A5E0B0E0E1EFFCE00C9499
:1019E000781E0E94C50C81110AC00E94810C0E94C1
:1019F000A6120E94EB022596EDE00C94941E0E9424
:101A000088102CE4822E22E0922E640110E0F60170
:101A1000E190F1906F01812F0E94B90F1F5F153087
:101A200009F449C0E816F90691F380915E0281FD40
:101A30000E94C20F0E94D30C782E10E0812F0E94CA
:101A4000B90F7C01F401A190B1904F018A159B055B
:101A500061F100E0CC24C394D12CAE24BF24C50195
:101A60008C219D21892BC1F07720B1F009831A8345
:101A700021E0C7018C219D21892B09F420E02B83D3
:101A80000E944B178160782F9D838C8349815A81F6
:101A90006B818D810E9404030F5FCC0CDD1C0F3025
:101AA000F1F6F4013297F182E0821F5F153031F6D2
:101AB0000E94A90C9CCFE816F90609F0B6CF95CF85
:101AC0001F93CF93DF930E948F0EEC01C11580E529
:101AD000D807F0F5C11580E4D80708F09CC0C03ED7
:101AE000D10520F5CD3CD10508F082C0C83AD1051A
:101AF00078F4C53AD10508F073C0C130D10519F1A9
:101B0000209709F1C430D105F0F4D0E0C0E01BC04B
:101B1000C33CD105D0F7C85AD0E0CC0FDD1FC45B61
:101B2000DE4F0990D881C02DD4640DC0C11580E26C
:101B3000D80708F0D1C0C11581E0D80708F05AC015
:101B4000C83ED10510F7CE01DF91CF911F910895C6
:101B5000C03682E5D80718F5C03482E5D80708F00A
:101B60006BC0C03282E5D80708F05FC0C11582E5BE
:101B7000D80708F497C02C2F2695269580E2289F39
:101B8000900111248C2F8370C1E0D0E002C0CC0FF3
:101B9000DD1F8A95E2F7C22BD32BDD68D4CFC03A84
:101BA00082E5D80760F4C03882E5D80708F459C048
:101BB000CF71D0E0DC2FCC27C46FD06AC4CFC03C3B
:101BC00082E5D80708F462C0C03E82E5D80708F075
:101BD0009CCFDC2FCC27CC27DF71C06FD06AB3CF6E
:101BE000C55AD0E0CE57DE4FC881D0E0D064ABCF2D
:101BF000D065A9CF8D2F0E94310F182FCE019927C4
:101C00000E948F0EC12FD0E0DC2FCC27CC27DF71B4
:101C1000C82BD92B98CFCE0199270E948F0ECC27A5
:101C2000DF70C82BD92BD06A8ECFCF71D0E0DC2FDC
:101C3000CC27C16FD06A87CF2C2F26952695277089
:101C400080E2289F900111248C2F8370C1E0D0E0A6
:101C500002C0CC0FDD1F8A95E2F7C22BD32BDC68C4
:101C600072CF2C2F26952695277080E2289F900111
:101C700011248C2F8370C1E0D0E002C0CC0FDD1F97
:101C80008A95E2F7C22BD32BDA685DCF8C2F8F7148
:101C90000E94310FC82FD0E0DC2FCC27CC27DF717A
:101CA000D06251CF8C2F8F710E94310F55E0D695A5
:101CB000C7955A95E1F7CF70D0E0DC2FCC27282FBD
:101CC00030E084FF05C044E0220F331F4A95E1F75E
:101CD000C22BD32BD06937CF8D2F8F710E94310F3C
:101CE000182FCE0199270E948F0EC12FD0E0DC2F34
:101CF000CC27CC27DF71C82BD92BD2CF462F7530FC
:101D000030F46F3020F4672F0E94FA01089590E0BC
:101D100080E008950E947E0E0E94600D0895823832
:101D20009105B9F1B0F48133910509F47DC048F40F
:101D30008932910509F46DC08A32910509F47BC09E
:101D400008958533910509F45FC08933910509F140
:101D50000895833E9105D9F138F4803E910529F12B
:101D6000823E910579F10895863E9105D9F1873E2D
:101D7000910509F43EC0843E910541F520919E02F3
:101D800021FF24C080919D0284FD19C087EE90E060
:101D9000089520919D02237009F05AC020919E025F
:101DA00023FF14C089E290E0089520919D0220FD58
:101DB00038C030919E0230FF09C024FF43C090E03C
:101DC00080E0089520919D0222FDF7CF0895209193
:101DD0009D0222FD3AC030919E0230FD39C024FFA1
:101DE000F5CFEDCF20919D0223FFF0CF24FDE7CF6B
:101DF000CDCF20919D0223FD2EC030919E0231FF58
:101E0000EECF84EE90E0089520919D0225FFDECF75
:101E1000C9CF20919D0225FD21C020919E0223FF64
:101E2000D5CF89E390E0D2CF20919D0226FFCECF7F
:101E30008AE290E0089520919D0226FFC7CF81E3BA
:101E400090E0089583EE90E0089582EE90E008958A
:101E500080EE90E0089586EE90E0089585E390E0AE
:101E6000089590919D0292FF06C0282F2871283076
:101E7000F9F4877F846093FF06C0282F28712831EA
:101E8000F1F4877E846120919E0220FF06C0382FE6
:101E900038713830D9F4877F816021FF06C0282F40
:101EA00028712831D1F4877E816194FD877E089561
:101EB000282F24712430F9F68B7F8860DCCF282FFF
:101EC0002471243101F78B7E8861DDCF382F317189
:101ED000313019F78E7F8860E0CF282F21712131B2
:101EE00021F78E7E8861E1CF80E008950E94E20BA9
:101EF00008950E9488102FEF86E791E021508040DE
:101F00009040E1F700C000000E94881080E00E942D
:101F1000B90F80FF04C00E94760F0E9496170895A3
:101F20000E94790F08950E94E90B811102C00E945E
:101F3000780C0E94F40B80935E020E94FE0B90933B
:101F40009E0280939D020E94900F0E94F90B90E0E8
:101F50000E94A7068091CA019091CB010E94C806F9
:101F6000089508950E94B10F089508950E94B50F35
:101F70000895E82FF0E0EE0FFF1FE755FD4F808139
:101F800091810895089580EA8A95F1F7089500C037
:101F900008950E94C30F0895F894E82FE295EF701A
:101FA000F0E031A1282F2F7081E090E001C0880F70
:101FB0002A95EAF7982F9095932391A392A1892BC4
:101FC00082A3789408950F931F93CF93DF93C4E96E
:101FD000D1E089918F3F11F00E94CC0F81E0C93987
:101FE000D807B9F7C5E8D1E004E911E089918F3F3E
:101FF00011F00E94CC0F0C171D07C1F7DF91CF9194
:102000001F910F910895AF92BF92DF92EF92FF92CE
:102010000F931F93CF93DF938C01D62EC62FD0E062
:10202000CE018C569E4F7C01FC0120812F3F09F48C
:102030004CC0F894E22FE295EF70F0E031A12F70E0
:1020400081E090E001C0880F2A95EAF7932F982B42
:1020500091A392A18095892382A378940E94C70FAF
:10206000E5E8F1E041E050E0B12CA12C21912F3FB7
:10207000B1F1A22FA295AF70B0E090968C9190E054
:102080002F7002C0959587952A95E2F780FD27C0AD
:10209000CA01A82AB92A440F551F81E0E439F8077C
:1020A00029F7F70180818F3F11F00E94CC0F61E08A
:1020B000A114B10409F460E08D2D0E94C90FCC0F6A
:1020C000DD1FC00FD11FB982A882DF91CF911F9170
:1020D0000F91FF90EF90DF90BF90AF90089590E048
:1020E00080E0D7CF0E94E30F8AE0E9EAF2E0DF0167
:1020F000982F1D929A95E9F7EFE9F2E0DF011D9222
:102100008A95E9F785E00E94C3100E94B20F0895F6
:10211000AAE0B0E0EEE8F0E10C94801E8E010F5FC3
:102120001F4F8AE0F80111928A95E9F7F12C6F2D83
:10213000C8010E940310F394F5E0FF12F8CF4AE0C3
:1021400050E0B8018FE992E00E94BE1E21E00097A6
:1021500009F420E0892B41F08AE0F801AFE9B2E010
:1021600001900D928A95E1F745E069EA72E08FE906
:1021700092E00E94C410182F0E94B60F812F2A9659
:10218000E5E00C949C1E0895CF92DF92EF92FF92AF
:102190001F93CF93DF936C017B01C42F222349F05F
:1021A00081E0809361020E944B17909360028093BC
:1021B0005F021091610211110AC010E0812FDF91BE
:1021C000CF911F91FF90EF90DF90CF900895809175
:1021D0005F02909160020E946317059770F3D0E050
:1021E000CC0FDD1FAE01B601C7010E94BE1E892BB8
:1021F00041F0AE01B601C7010E94CB1E10926102F0
:10220000DDCF10E0FBCF0E942F190E94E20C0E944C
:102210003C1908950E9441190E94EB0C0E945B1921
:1022200008950E94E4160E9415190E94C70C0E948E
:1022300003110E940A110E94D80CFBCF8091680202
:1022400080FF0DC06091070170E0660F771F603856
:10225000710570F56115710569F1862F089581FF8B
:1022600007C06091070184E0689FB0011124EFCF9F
:102270006091070182FD0AC0809167028823A9F05E
:102280002091060160910701821710F088E0ECCFE1
:10229000869FC001112433E0880F991F3A95E1F71A
:1022A000622F70E00E94591ED2CF68E070E0D5CF57
:1022B0008FE7089581E008958091680280FF0CC047
:1022C0006091030170E07595679575956795611547
:1022D000710549F1862F089581FF06C060910301C1
:1022E00070E075956795F3CF6091030182FD0BC097
:1022F000909166029923A1F06091020180910301FF
:10230000961738F0682F70E06038710500F38FE79A
:102310000895899FC001112470E00E94591EF4CFD6
:1023200061E070E0D7CF81E008958D3C31F40E94E8
:102330001E11819580936C0208958E3C19F40E94C1
:102340001E11F8CF8F3C31F40E941E1181958093AD
:102350006B020895803D19F40E941E11F8CF893D4B
:1023600029F40E945C1180936D0208958A3D21F446
:102370000E945C118195F7CF8B3D31F40E945C1176
:10238000819580936E0208958C3D19F40E945C1132
:10239000F8CF9FE2980F983070F4815D990B21E09F
:1023A00030E001C0220F8A95EAF780916A02822B01
:1023B00080936A0208958D3D31F4809168028160B6
:1023C0008093680208958E3D21F4809168028260B6
:1023D000F7CF8F3DB9F7809168028460F1CF4091CB
:1023E0006B028D3C59F480916C0287FF0DC01092F6
:1023F0006C0241110BC01092670208C08E3C81F440
:1024000080916C0218169CF3442381F080916D0238
:1024100090916E02892B09F05AC0109266020895BD
:102420008F3C49F447FFF0CF10926B0280916C0211
:102430008111ECCFE0CF803D19F41416ACF3E4CF5A
:1024400090916D02893D29F41916F4F610926D02EF
:10245000DBCF8A3D19F497FFD7CFF8CF90916E026A
:102460008B3D29F497FFD0CF10926E02CDCF8C3DDB
:1024700019F41916CCF3C8CF9FE2980F983090F456
:10248000815D990B21E030E0B90102C0660F771F32
:102490008A95E2F7CB01809590916A028923809317
:1024A0006A02B2CF8D3D31F4809168028E7F8093B5
:1024B0006802AACF8E3D21F4809168028D7FF7CF0C
:1024C0008F3D09F0A1CF809168028B7FF0CF0895F6
:1024D0000E944B179C0190916B0280916C02982B8B
:1024E00021F0309365022093640290916D028091F7
:1024F0006E02982B21F0309363022093620289E6EA
:1025000092E00E948115089586E0E9E6F2E0DF019D
:102510001D928A95E9F71092670210926602109256
:1025200068020895FC01828181110EC083818111AE
:102530000BC08481811108C091E08581811101C0A7
:1025400090E0892F8170089581E0FCCFA6E0B0E093
:10255000ECEAF2E10C94821E86E0E9E6F2E0DE01AC
:10256000119601900D928A95E1F710926B021092EC
:102570006C0210926D0210926E028B819C81892BED
:1025800089F080916402909165020E946317AC010A
:10259000909167029923C9F180910801841715066B
:1025A00008F440C08D819E81892B91F08091620258
:1025B000909163020E946317AC0190916602992387
:1025C00009F471C0809104018417150608F479C0DC
:1025D000BE016F5F7F4F89E692E00E949B168111DA
:1025E00005C089E692E00E94921281110E94681251
:1025F00086E0FE013196A9E6B2E001900D928A953F
:10260000E1F72696E3E00C949E1E209109018AE0F2
:10261000289F900111242417350720F69F5F90937F
:10262000670202C09F3FD1F71B81112359F00E941E
:102630001E119FEF11160CF491E0899F802D11243B
:1026400080936B021C81112359F00E941E119FEF91
:1026500011160CF491E0899F802D112480936C0257
:1026600030916B02332309F49DCF20916C02222319
:1026700009F498CF45EB3403C0011124992359F094
:1026800090936B0245EB240390011124332339F01E
:1026900030936C0287CF81E080936B02F3CF81E0AF
:1026A00080936C027FCF209105018AE0289F9001E2
:1026B00011242417350708F08BCF9F5F9093660293
:1026C00002C09F3FD1F71D81112359F00E945C1178
:1026D0009FEF11160CF491E0899F802D11248093B7
:1026E0006D021E81112359F00E945C119FEF11169B
:1026F0000CF491E0899F802D112480936E0230911B
:102700006D02332309F464CF20916E02222309F471
:102710005FCF45EB3403C0011124992359F0909306
:102720006D0245EB240390011124332339F03093DB
:102730006E024ECF81E080936D02F3CF81E08093F3
:102740006E0246CFCF93DF93EC01FB018281882399
:1027500009F4D2C09E0130572332310508F0B2C0CF
:102760000E94FE0B90939E0280939D02FE01E15019
:10277000F047E232F10520F4EC5DF04E0C946D1E52
:1027800080919D02816080939D0293C080919E0202
:10279000886080939E028DC080919D028260F3CFFD
:1027A00080919D028460EFCF80919D028860EBCF85
:1027B00080919E028160EDCF80919E028260E9CF80
:1027C00080919D028061DFCF80919D028062DBCF8E
:1027D00080919D028064D7CF0E94540680919D0213
:1027E0008068D1CF80919D028C60CDCF80919E0278
:1027F0008360CFCF80919D028E7FC5CF80919E0256
:10280000877FC7CF80919D028D7FBDCF80919D0234
:102810008B7FB9CF80919D02877FB5CF80919E023B
:102820008E7FB7CF80919E028D7FB3CF80919D0226
:102830008F7EA9CF80919D028F7DA5CF80919D0233
:102840008F7BA1CF0E94540680919D028F779BCFF2
:1028500080919D02837F97CF80919E028C7F99CF3C
:1028600080919D0282FB992790F921E0922790FBAD
:1028700082F990FB83F987CF80919E02982F9095E3
:1028800091708E7F892B90FB81F983CF90919D026F
:10289000892F8F7B96FF806476CF0E94540690919B
:1028A0009D02892F97FB87F980586DCF81E00E94A8
:1028B0007B0C80919D0290919E020E94030C0E94CD
:1028C000540680E0DF91CF91089580E0F0CF9091A1
:1028D0009D02892F8F7E94FF806155CF90919D023C
:1028E000892F8E7F90FF81604ECF90919E02892F1D
:1028F000877F93FF88604DCF81E0E4CFCF93DF9354
:10290000EB0186319C4711F50E94FB0A9A819923BD
:1029100099F08A7A91E009F490E090936F02811126
:1029200009C089E20E94D30A0E943C0B80E0DF913B
:10293000CF91089585E3F6CF80916F02811104C095
:1029400089E20E94DB0AF0CF85E3FBCF81E0EFCF85
:102950000F931F93CF93DF93C42FD22FFC0182815B
:102960008823C9F0409372020E944B179093710222
:102970008093700280E28C0F883040F4C77081E051
:1029800001C0880FCA95EAF70E94EA03DF91CF9150
:102990001F910F91089510917202141332C080910B
:1029A0007002909171020E946317883C910548F56E
:1029B000C0E2CD0F1D17B9F080E2810F883040F4DE
:1029C000177081E001C0880F1A95EAF70E94F103A1
:1029D000C83048F481E09D2F977001C0880F9A9508
:1029E000EAF70E94EA03802F0E94E103C83070F6E4
:1029F000D77081E001C0880FDA95EAF70E94F103F1
:102A0000C5CF80E28C0F883008F6C77081E001C026
:102A1000880FCA95EAF7F2CF0F93DB0188519C47E4
:102A200087309105A0F5FC01EA5BF04E0C946D1E19
:102A300006E221EE41EE6AE17CE7CD010E94A81496
:102A400080E00F91089507E225EE45EE6BE17CE70B
:102A5000F4CF06E221EE40EE68E17CE7EECF07E23C
:102A600025EE44EE69E17CE7E8CF06E221EE42EE96
:102A70006CE17CE7E2CF07E225EE46EE6DE17CE714
:102A8000DCCF08E221E045EE6EE17CE7D6CF12967E
:102A90008C91882319F010927202D3CF81E0D1CFAC
:102AA00090939B0180939A0108959093780280936C
:102AB00077020895E0917702F0917802309729F03B
:102AC0000190F081E02D0995089580E00895E0914E
:102AD0007702F0917802309799F020911201222329
:102AE00059F020919D0227FF07C0DC012C9111961F
:102AF0002C93119726E02C930280F381E02D099509
:102B00000895E0917702F0917802309739F022E051
:102B1000DC012C930480F581E02D09950895A3E054
:102B2000B0E0E5E9F5E10C94831E20917502309147
:102B3000760228173907A1F09093760280937502E8
:102B4000E0917702F0917802309751F023E02983E9
:102B50009B838A830680F781E02DCE01019609953B
:102B60002396E2E00C949F1EA3E0B0E0EAEBF5E1CF
:102B70000C94831E20917302309174022817390738
:102B8000A1F09093740280937302E0917702F09128
:102B90007802309751F024E029839B838A83068052
:102BA000F781E02DCE01019609952396E2E00C9481
:102BB0009F1EFC01329680911201882321F08091A2
:102BC0009D029EE187FF96E080E0915008F4089511
:102BD00021912223D1F38F5FF8CF662301F1209159
:102BE00012012223F1F020919D0227FF1AC0462FE7
:102BF0004695469546954E3190F4677021E030E059
:102C000002C0220F331F6A95E2F7840F911DFC0169
:102C1000828190E02823392381E0232B69F480E02E
:102C20000895FC01329608962191261721F0E817A5
:102C3000F907D1F7F4CF81E008959C01FC013296A9
:102C40009FEF80E04191461751F09F3F19F44111E9
:102C500001C0982F8F5F8630A9F79F3F09F4089530
:102C6000290F311D97FD3A95F90162830895FC0102
:102C7000329608962191261303C0DF0111971C920A
:102C8000E817F907B9F70895E62FE695E695E69572
:102C9000EE3168F4E80FF92FF11D677021E030E0A4
:102CA00001C0220F6A95EAF78281822B8283089500
:102CB000E62FE695E695E695EE3170F4E80FF92FEC
:102CC000F11D677021E030E001C0220F6A95EAF73C
:102CD00020958281282322830895209112012223A6
:102CE00039F020919D0227FF03C00E9444160895E9
:102CF0000E941D16089520911201222339F020917F
:102D00009D0227FF03C00E94581608950E9437169F
:102D10000895FC01329680911201882351F0809130
:102D20009D0287FF06C08EE1DF011D928A95E9F7BB
:102D3000089586E0F9CF46E050E00E94BE1E21E0F3
:102D4000892B09F420E0822F089508950E94A5168A
:102D50000895811106C081E0809379020E94A61631
:102D6000089582E0F9CF83E0809379020E94A6164D
:102D700008950E94A916089581E0809379020E9427
:102D8000A61608950E94BC160895089508950E94FD
:102D9000C6160895089508950E94C5160895CF9304
:102DA0000E94CA160E9488100E94CB16C0E08C2F89
:102DB0000E94B90F892B31F4CF5FC530C1F780E095
:102DC000CF91089581E0FCCF85B7806885BF85B736
:102DD000806885BF08951F921FB61F9211248F939C
:102DE0009F93AF93BF9380917A02811113C080911A
:102DF000B3029091B402A091B502B091B60241968F
:102E0000A11DB11D8093B3029093B402A093B502AB
:102E1000B093B602BF91AF919F918F911F901FBE4B
:102E20001F9018958091BB02843031F10E94BB0243
:102E300010927A0288E190E020E40FB6F894A89509
:102E4000809360000FBE2093600083B7817F846011
:102E500083BF83B7816083BF7894889583B78E7F63
:102E600083BF0FB6F894A895809160008861809325
:102E70006000109260000FBE08950E9454060E94E8
:102E8000C002089582E084BD93E095BD9AEF97BD9E
:102E900080936E0008952FB7F8948091B3029091BB
:102EA000B402A091B502B091B6022FBF08952FB71A
:102EB000F8946091B3027091B4028091B502909140
:102EC000B6022FBF08959C014FB7F8948091B302CA
:102ED0009091B402A091B502B091B6024FBF821B8F
:102EE000930B089578941F921FB61F9211248F930D
:102EF0009F93AF93BF938091B3029091B402A0913E
:102F0000B502B091B6020196A11DB11D8093B30226
:102F10009093B402A093B502B093B602BF91AF9163
:102F20009F918F911F901FBE1F90189581E08093F5
:102F3000E00080E28093D8001092C9008FE19EE407
:102F40000197F1F700C0000087E090EBDC0180936F
:102F5000C4029093C502A093C602B093C70288E151
:102F60009CE00FB6F894A895809360000FBE9093F4
:102F70006000FFCF88E19CE00FB6F894A89580939D
:102F800060000FBE90936000FFCF80919B02089578
:102F90009B01BA019091BB029430E9F48F70809349
:102FA000E9009FEF8091E800915085FD06C085ED16
:102FB0008A95F1F700009111F5CF8091E80085FF27
:102FC0000AC050E040E0C9010E94D2198091E80097
:102FD0008E778093E800089543E050E0BC0182E0E2
:102FE0000E94C817089546E050E0BC0182E00E94AC
:102FF000C8170895CF93DF93EC01809112018111DE
:1030000011C048E050E0BE0181E00E94C81780E294
:10301000FE01ABE7B2E001900D928A95E1F7DF91F6
:10302000CF91089580919D0287FF05C040E282E024
:1030300050E0BE01EACF48E081E0FACF8091BA02C9
:10304000811109C00E94621B0E94BF1B8091E20097
:1030500084608093E20008951092BA0208950E945D
:10306000BC1608956091B70281E0611101C080E053
:103070000E94B31608959091BB0281E0943009F04C
:1030800080E06091B7020E94B916089542E061ECB9
:1030900081E00E94DE1A42E261EC82E00E94DE1AC8
:1030A0009091BB0281E0943009F080E06091B7021A
:1030B0000E94A91608958091BD02833009F461C071
:1030C00030F48130D1F1823009F49EC008958A3005
:1030D00009F48AC08B3009F46FC0893009F050C000
:1030E0008091BC02813209F04BC08091C002909166
:1030F000C102029708F044C08091E800877F809366
:10310000E8008091E80082FF37C09091F300809141
:10311000F200029731F48091F100813011F0863095
:1031200021F48091F10080939B028091E8008B77DD
:103130008093E8000E94121B23C08091BC02813A58
:10314000F9F48091E800877F8093E8008091C002C5
:103150009091C102892B61F460E28BE792E070E00C
:103160000E94211A8091E8008B778093E8000895EF
:1031700060E090E080E0F3CF8091BB028111C1CF8D
:1031800008958091BC02813AD9F78091C002909154
:10319000C102892BA9F78091E800877F8093E8001E
:1031A0008091E80080FFFCCF809112018093F100B4
:1031B0008091E8008E77BCCF8091BC02813201F70C
:1031C0008091C0029091C102892BD1F68091E800D4
:1031D000877F8093E8000E94121B8091BE0280933B
:1031E00012010E94540608958091BC02813241F67A
:1031F0008091E800877F8093E8000E94121B8091F5
:10320000BF0280939C0208958091BC02813A09F02C
:10321000B7CF8091E800877F8093E8008091E80035
:1032200080FFFCCF80919C02C1CF84B7877F84BF91
:103230000FB6F894A8958091600088618093600033
:10324000109260000FBE80E890E00FB6F894809373
:103250006100909361000FBE0E94C21608950E9403
:10326000621B0E94BF1BE2EEF0E0808184608083DD
:1032700078940E943E1E08958AE091E00E945515C0
:1032800008958091BB02853031F48091BB02853076
:1032900019F00E943D1708950E9412178091B902FB
:1032A000882399F30E94CF16882379F30E94BC19D2
:1032B0000E945406EACF08959A014091C2025091AB
:1032C000C3020E9464190895492F552743305105C0
:1032D00019F168F44130510509F444C042305105F8
:1032E00009F445C090E080E050E040E025C0413264
:1032F000510549F142325105A9F780E490E047E0D9
:1033000053E061157105C1F086EB90E041E552E0B4
:103310006130710589F0E6CF99278130910581F000
:10332000009729F00297F1F6E8EDF1E002C0E0E045
:10333000F2E0849190E0AF01F90151834083089558
:10334000E6EEF1E0F6CF89E090E046E152E061156B
:10335000710591F389E090E04FE252E06130710530
:1033600059F3C0CF82E190E04FE352E0E5CF8BE329
:1033700090E044E052E0E0CF80E189BD82E189BD88
:1033800009B400FEFDCF8091D8008F7D8093D800D6
:103390008091E00082608093E0008091E00081FDF8
:1033A000FCCF0895AF92BF92CF92DF92FF920F931E
:1033B0001F93CF93DF936C01EB018A010E94311BB5
:1033C000F82E811123C00115110539F0F801808113
:1033D0009181C81BD90BC80ED91EB12CA12C2097E6
:1033E000A9F08091E80085FD22C08091E8008E77E9
:1033F0008093E80001151105A1F0F8018081918109
:10340000A80EB91EB182A08285E0F82E8F2DDF9123
:10341000CF911F910F91FF90DF90CF90BF90AF9011
:1034200008950E94311B8823D1F2F82EEFCFF601C8
:1034300081916F018093F1002197FFEFAF1ABF0ACE
:10344000CECFFC018091C2029091C30286179707EC
:10345000A0F06115710529F49091E8009E77909392
:10346000E80090E06115710551F4911108C0809158
:10347000E80082FF34C080E00895BC01F2CF809163
:10348000BB028823C1F18530C1F18091E80083FD42
:1034900030C08091E80082FDEACF8091E80080FF93
:1034A000E1CF8091F3002091F200382F6115710572
:1034B00019F02830310558F091E02830310509F035
:1034C00090E02091E8002E772093E800CBCF819107
:1034D0008093F100615071092F5F3F4FE7CF8091DA
:1034E000BB02882341F0853041F08091E80083FFE2
:1034F000BECF81E0089582E0089583E00895FC0145
:103500008091C2029091C30286179707A0F06115BF
:10351000710529F48091E8008E778093E80090E0AF
:103520006115710551F4911108C08091E80082FF86
:1035300035C080E00895BC01F2CF8091BB028823A2
:10354000C9F18530C9F18091E80083FD31C08091D7
:10355000E80082FDEACF8091E80080FFE1CF809112
:10356000F3002091F200382F6115710519F0283011
:10357000310558F091E02830310509F090E0809154
:10358000E8008E778093E800CBCF84918093F100A0
:103590003196615071092F5F3F4FE6CF8091BB029A
:1035A000882341F0853041F08091E80083FFBDCF52
:1035B00081E0089582E0089583E00895982F973080
:1035C00028F08F708093E90081E008959093E900DE
:1035D000242F762F50E0981731F07091EC00209155
:1035E000ED005091F00021FD02C09F5FE8CF3091C7
:1035F000EB003E7F3093EB003091ED003D7F309348
:10360000ED003091EB0031603093EB007093EC00F3
:103610002093ED005093F0002091EE0027FDE5CFC0
:1036200080E008958091BC0287FF13C08091E8007C
:1036300082FF06C08091E8008B778093E80004C089
:103640008091BB028111F2CF08958091BB02882343
:10365000D9F38091E80080FFF8CF8091E8008E7761
:10366000ECCF2091E4003091E50095E6A90120918E
:10367000EC00822F817020FF06C08091E80080FF5F
:1036800006C080E008952091E80022FD1AC08091D4
:10369000BB02882389F0853089F08091EB0085FD9D
:1036A0000FC02091E4003091E50042175307F9F272
:1036B0009150E1F684E0089582E0089583E0089552
:1036C00081E008950E94D11B0E94D91BE0EEF0E03A
:1036D000808181608083E8EDF0E080818F77808356
:1036E00019BCA7EDB0E08C918E7F8C9380818F7E8A
:1036F00080831092BA0208950F931F93CF93DF93A4
:103700000E94D11B0E94D91BC8EDD0E088818F7721
:10371000888388818068888388818F7D888319BCAD
:103720001092BB021092B7021092B9021092B80226
:1037300000EE10E0F80180818B7F808388818160BA
:10374000888342E060E080E00E94DE1AE1EEF0E073
:1037500080818E7F8083E2EEF0E0808181608083D3
:10376000808188608083F80180818E7F808388815A
:1037700080618883DF91CF911F910F910895E8EDCB
:10378000F0E080818F7E8083E7EDF0E080818160D2
:10379000808384E082BF81E08093BA020E947C1B18
:1037A0000895E8EDF0E080818E7F80831092E20042
:1037B00008951092DA001092E10008951F920F927E
:1037C0000FB60F9211242F933F934F935F936F93F4
:1037D0007F938F939F93AF93BF93EF93FF938091CA
:1037E000E10082FF0BC08091E20082FF07C0809160
:1037F000E1008B7F8093E1000E943D1E8091DA0002
:1038000080FF19C08091D80080FF15C08091DA0038
:103810008E7F8093DA008091D90080FF96C080E18E
:1038200089BD82E189BD09B400FEFDCF81E08093AE
:10383000BB020E941E188091E10080FF19C0809198
:10384000E20080FF15C08091E2008E7F8093E2004D
:103850008091E20080618093E2008091D8008062D4
:103860008093D80019BC85E08093BB020E94321877
:103870008091E10084FF2BC08091E20084FF27C08B
:1038800080E189BD82E189BD89B5982F917080FF63
:10389000FBCF8091D8008F7D8093D8008091E1008C
:1038A0008F7E8093E1008091E2008F7E8093E20022
:1038B0008091E20081608093E2008091B7028823CA
:1038C00009F449C084E08093BB020E943B188091B8
:1038D000E10083FF29C08091E20083FF25C0809131
:1038E000E100877F8093E10082E08093BB02109229
:1038F000B7028091E1008E7F8093E1008091E20029
:103900008E7F8093E2008091E20080618093E200EC
:1039100042E060E080E00E94DE1A8091F000886062
:103920008093F0000E942F18FF91EF91BF91AF910B
:103930009F918F917F916F915F914F913F912F91C7
:103940000F900FBE0F901F90189519BC1092BB02DC
:103950000E942C1870CF8091E30087FD93E0909334
:10396000BB02B3CF1F920F920FB60F9211242F9369
:103970003F934F935F936F937F938F939F93AF93F7
:10398000BF93CF93DF93EF93FF93D091E900DF7064
:103990008091EC00C82FC17080FDC0E81092E90052
:1039A0008091F000877F8093F00078940E94F61C4D
:1039B0001092E9008091F00088608093F000CD2B98
:1039C000CF70C093E900FF91EF91DF91CF91BF914C
:1039D000AF919F918F917F916F915F914F913F91A7
:1039E0002F910F900FBE0F901F901895AAE2B0E094
:1039F000ECEFFCE10C94821E8CEB92E02091F10044
:103A0000FC012193CF01F2E0843C9F07B9F70E94AB
:103A10005B188091E80083FF1EC18091BC029091E9
:103A2000BD029A3008F017C1E92FF0E0E35BF04ED9
:103A30000C946D1E803899F0823809F00CC1809189
:103A4000C0028F70873008F006C18093E900809132
:103A5000EB0085FB882780F91092E90006C0809171
:103A6000B8029091B902911182609091E800977F1D
:103A70009093E8008093F1001092F1008091E800AB
:103A80008E77E5C0882309F4D3C0823009F0E3C003
:103A90008091BE028111D6C08091C0028F702FEF3D
:103AA000280F263008F0D7C08093E9002091EB0062
:103AB00020FFC8C0933031F48091EB008062809386
:103AC000EB00C0C09091EB0090619093EB0021E07F
:103AD00030E001C0220F8A95EAF72093EA001092A5
:103AE000EA008091EB008860EACF8111B4C01091A8
:103AF000BE021F778091E3008078812B8093E300E2
:103B00008091E800877F8093E8000E94121B8091DB
:103B1000E80080FFFCCF8091E30080688093E300A1
:103B200082E0111183E08093BB0295C080588230FF
:103B300008F091C08091BE029091BF028C3D23E0BD
:103B40009207A1F583E08A838AE289834FB7F894CC
:103B5000DE01139620E03EE051E2E32FF0E05093C7
:103B60005700E49120FF03C0E295EF703F5FEF70D4
:103B70008E2F90E0EA30C0F0C7968D939D932F5F13
:103B8000243159F74FBF8091E800877F8093E80088
:103B90006AE270E0CE0101960E94211A8091E8004D
:103BA0008B778093E80057C0C096E7CF6091C00242
:103BB0007091C102AE014F5F5F4F0E945C19BC0162
:103BC000892B09F448C09091E800977F9093E80012
:103BD00089819A810E947F1AE1CF8038E1F5809136
:103BE000E800877F8093E8008091B7028093F1001E
:103BF00045CF811130C09091BE02923060F5809126
:103C0000E800877F8093E8009093B7020E94121B20
:103C10008091B702882311F084E005C08091E30011
:103C200087FDFACF81E08093BB020E94461813C043
:103C30008091BE02813079F481E0933009F080E018
:103C40008093B9021092E9008091E800877F809309
:103C5000E8000E94121B8091E80083FF0AC0809157
:103C6000E800877F8093E8008091EB00806280937A
:103C7000EB00AA96E3E00C949E1E0895CF938091EA
:103C8000BB028823A1F0C091E900CF709091EC00B5
:103C9000892F817090FD80E8C82B1092E9008091F7
:103CA000E80083FD0E94F61CCF70C093E900CF911D
:103CB000089597FB072E16F4009407D077FD09D0DE
:103CC0000E94AA1E07FC05D03EF4909581959F4F57
:103CD0000895709561957F4F0895EE0FFF1F059031
:103CE000F491E02D09942F923F924F925F926F9240
:103CF0007F928F929F92AF92BF92CF92DF92EF927C
:103D0000FF920F931F93CF93DF93CDB7DEB7CA1BFC
:103D1000DB0B0FB6F894DEBF0FBECDBF09942A8827
:103D2000398848885F846E847D848C849B84AA84CF
:103D3000B984C884DF80EE80FD800C811B81AA815C
:103D4000B981CE0FD11D0FB6F894DEBF0FBECDBF27
:103D5000ED010895AA1BBB1B51E107C0AA1FBB1FA1
:103D6000A617B70710F0A61BB70B881F991F5A9507
:103D7000A9F780959095BC01CD010895FB01DC0168
:103D800004C08D910190801921F441505040C8F732
:103D9000881B990B0895FB01DC0102C001900D9274
:103DA00041505040D8F70895F999FECF92BD81BD9A
:103DB000F89A992780B50895A8E1B0E042E050E074
:103DC0000C94081F262FF999FECF92BD81BDF89A59
:103DD000019700B4021639F01FBA20BD0FB6F8944F
:103DE000FA9AF99A0FBE08950396272F0E94E31EB0
:103DF0000E94E21E252F0E94E31E242F0C94E31E36
:103E00000196272F0E94E31E0C94E21EDC01CB01D9
:103E1000FC01F999FECF06C0F2BDE1BDF89A3196DA
:103E200000B40D9241505040B8F70895F894FFCF78
:103E30003704370488048804FB0417056604660405
:103E40001C058D059C059C05FA136E140214CC13F9
:103E5000D0130614D4130A141614E0136714E413D1
:103E60001A14E8131E144614EC1322144D14F21302
:103E700028143014D8130E14DC131214F6132C1457
:103E80003C1456146514C613FE13751429152F150A
:103E90001815231535153B1541151A1D421D2B1EEE
:0E3EA000421D2B1E751D961D2B1EED1DF91DBE
:103EAE002802280850011E0A1401C517FA17F31725
:103EBE00EC1701E200E900EA00B500B600B700CD4C
:103ECE00008301CC008A0192019401210223022475
:103EDE00022502260227022A02B300B4006F0070E8
:103EEE00009F01CB019F02A002818283E200E900C4
:103EFE00EA00B500B600B700CD008301CC008A0100
:103F0E009201940121022302240225022602270295
:103F1E002A02B300B4006F0070009F01CB019F0214
:103F2E00A0028182833435366667F6F5309192931E
:0A3F3E0095949697F4F1F0C6F70091
:00000001FF
